:100000000C9434000C9451000C9451000C94510049
:100010000C9451000C9451000C9451000C9451001C
:100020000C9451000C9451000C9451000C9451000C
:100030000C9451000C9451000C9451000C945100FC
:100040000C9451000C9451000C9451000C945100EC
:100050000C9451000C9451000C9451000C945100DC
:100060000C9451000C94510011241FBECFEFD8E026
:10007000DEBFCDBF11E0A0E0B1E0E2EEFBE002C0E8
:1000800005900D92A837B107D9F721E0A8E7B1E0B4
:1000900001C01D92AB37B207E1F70E94E4020C9455
:1000A000E8050C94000067E670E080E090E00E94B4
:1000B00068020E9423010E94A2008AE091E00C9451
:1000C0005C02F89415BC85B5836085BD14BC84B50D
:1000D000836084BD78940895F89410928000E1E8DC
:1000E000F0E0108285E08083789408958630A1F452
:1000F00084B5611104C08F7384BD5E9808956F3F0D
:1001000021F48F7384BD5E9A0895806884BD84B5A0
:100110008F7B84BD67BD0895853099F484B56111E6
:1001200004C08F7C84BD5D9808956F3F21F48F7C5F
:1001300084BD5D9A0895806284BD84B58F7E84BD40
:1001400068BD08951AB814B880E68AB9579A0E9413
:1001500061008BE084B983E291E00C945C021BB8EF
:1001600015B86BE985E00E9476006BE986E00E9495
:1001700076005F9A2B9A08951BB815B86BE985E055
:100180000E9476006BE986E00E947600589A299AD0
:1001900008951BB815B86BE985E00E9476006BE9FD
:1001A00086E00E9476005F9A299A08951BB815B8D8
:1001B0006BE985E00E9476006BE986E00E9476009C
:1001C000289A2B9A089560E085E00E94760060E00E
:1001D00086E00E94760028985F982B9829980895C9
:1001E0000895C6E0D0E002E010E00E9492019C0178
:1001F00084309105D9F070F4892B11F12250310926
:100200002230310590F710937901009378010E9414
:10021000D600EBCF8730910560F0079731F78091DA
:10022000780190917901069741F4F1CF0E94AF00D7
:10023000DCCFD0937901C09378010E94C900D5CF5B
:100240000E94E300D2CF87B1887F87B980E4809392
:100250007C0087E080937A0080917A0080688093A8
:100260007A0080917A00806480937A0080917A008D
:1002700086FDFCCF809178009091790081E391E038
:100280000C945C0290917C00907E8F71982B9093DF
:100290007C0080917A00806480937A0080917A005B
:1002A00086FDFCCF809178009091790008951F938E
:1002B000CF93DF9300D000D000D0CDB7DEB7182F9A
:1002C0006E831D8219821A821B821C824D815E817F
:1002D000451315C0242F30E050E040E069817A8159
:1002E0008B819C810E94EF02C90126960FB6F8947B
:1002F000DEBF0FBECDBFDF91CF911F910895812F3B
:100300000E94420129813A814B815C81280F391F6B
:10031000411D511D29833A834B835C833D813F5F9F
:100320003D83D4CFAF92BF92CF92DF92EF92FF92F4
:100330000F931F93CF93DF93CDB7DEB7C654D10988
:100340000FB6F894DEBF0FBECDBF64E180E00E941F
:1003500057016C0164E181E00E9457017C0164E176
:1003600082E00E9457018C0180917A018F5F809317
:100370007A01811119C01F930F93FF92EF92DF92C0
:10038000CF9284E491E09F938F93CE0101965C011C
:100390009F938F930E941703C5010E945C020FB6C2
:1003A000F894DEBF0FBECDBF91E0C91692E0D9062A
:1003B00008F181E0E81682E0F80608F441C0013057
:1003C000124060F181E090E00E948D0281E090E0B7
:1003D000CA5BDF4F0FB6F894DEBF0FBECDBFDF9113
:1003E000CF911F910F91FF90EF90DF90CF90BF9032
:1003F000AF900895C11482E0D80609F440C0E1141A
:1004000092E0F90670F5011582E0180770F590E0AA
:1004100080E00E948D0290E080E0DACF83E090E0FF
:100420000E948D0283E090E0D3CF011592E019077E
:1004300058F584E090E00E948D0284E090E0C8CFFF
:100440000130124038F087E090E00E948D0287E092
:1004500090E0BECF82E090E00E948D0282E090E0CA
:10046000B7CFE11492E0F90601F70130124098F29B
:1004700086E090E00E948D0286E090E0A9CF81E0C6
:10048000E81682E0F80688F30130124020F285E099
:1004900090E00E948D0285E090E09ACF8091C000AC
:1004A00087FFFCCF8091C60008959091C00095FF12
:1004B000FCCF8093C6000895CF93DF93EC01899120
:1004C000811103C0DF91CF9108950E945502F7CFAB
:1004D000362F462F572FBC01BB27A72F962F852FCE
:1004E0008093C5003093C40088E18093C1008EE002
:1004F0008093C20080E091E00C945C0290E020E1E7
:100500003FEE981301C008952BB93BB99F5FF9CF17
:100510008BEF85B983E00C947E02CF93DF93FC01CF
:100520003197E730F10508F04BC0E651FA4F0C94D3
:10053000110384E085B983E00E947E028BEF85B9C8
:10054000DF91CF9108950E94880284E085B981E00F
:100550000E947E028BEF85B982E0DF91CF910C94EF
:100560007E020E94880284E085B982E00E947E02B9
:100570008BEF85B981E0F1CF0E94880284E085B9D4
:1005800081E0F4CF0E94880284E085B982E0D4CF74
:100590000E94880284E085B981E0CECF0E94880263
:1005A000D4E0D5B981E00E947E02CBEFC5B981E0ED
:1005B0000E947E02D5B981E00E947E02C5B9C0CFFB
:1005C000DF91CF910C9488020E9453000E94F100A9
:1005D0008BE191E00E945C0290E080E00895A1E24E
:1005E0001A2EAA1BBB1BFD010DC0AA1FBB1FEE1FAD
:1005F000FF1FA217B307E407F50720F0A21BB30BF8
:10060000E40BF50B661F771F881F991F1A9469F773
:1006100060957095809590959B01AC01BD01CF01CF
:100620000895EE0FFF1F0590F491E02D0994AEE0C0
:10063000B0E0EDE1F3E00C94BF050D891E8986E082
:100640008C831A8309838FEF9FE79E838D83AE018E
:10065000475E5F4F6F89788DCE0101960E943A0305
:100660002F813885020F131FF80110822E96E4E0C7
:100670000C94DB05AFE0B0E0E0E4F3E00C94B105EE
:100680007C013B018A01DC0117961C921E92169791
:1006900013968C9181FFBEC19AE0292EFE013196FE
:1006A0004F01D70113969C91F30193FD859193FF20
:1006B00081913F01882309F444C1853239F493FDC7
:1006C000859193FF81913F01853229F4B70190E034
:1006D0000E942305E6CFB12C412C512CBFE1B5156A
:1006E00038F08B3209F188F4803201F1833221F144
:1006F00057FC3AC020ED280F2A3040F556FE1FC0A7
:10070000B29C200D1124B22E06C08D3291F08033A0
:1007100079F7689450F8F30193FD859193FF8191E7
:100720003F018111DBCF20C0689451F8689452F8E2
:10073000F2CF689453F8EFCF689454F8ECCF429C12
:10074000200D1124422E689455F8E5CF8E3229F4FD
:1007500056FCF7C0689456F8DECF8C3619F46894CE
:1007600057F8D9CF8836B9F2982F9F7D955493309A
:10077000C0F08336A1F18337C1F1833509F05BC046
:10078000D801CD90DD908D016B2D70E056FC02C03C
:100790006FEF7FEFC6010E940D055C01689457F86A
:1007A0000AC00C5F1F4FEFE3E983AA24A394B12C86
:1007B0006401E89457F853FC04C04A141B0409F080
:1007C00018F5342CA114B10431F5332009F469CFA4
:1007D000B70180E290E00E9423053A94F6CFD80159
:1007E0008C9189830E5F1F4FE0CFF801C190D190AB
:1007F0008F016B2D70E056FC02C06FEF7FEFC601DA
:100800000E9418055C01D5CFB70180E290E00E94FC
:1008100023054A94D2CFF60157FC859157FE81916A
:100820006F01B70190E00E94230531103A94B1E0C6
:10083000AB1AB108C7CF843619F0893609F071C0F8
:10084000F80157FE67C061917191819191918F017B
:10085000E52DEF76DE2E97FF09C090958095709577
:1008600061957F4F8F4F9F4F6894D7F82AE030E013
:10087000A4010E945305C82EC818AC2C5D2CD6FECE
:100880000CC0E89450F8CB1440F4D4FE05C0D2FC60
:1008900003C05D2D5E7E552EAB2C54FE93C0FE0131
:1008A000EC0DF11D8081803309F085C0652D697ED6
:1008B000562E752D7870372E53FC93C050FE8DC088
:1008C000BC2CA41410F4B40CBA1854FE90C0B70198
:1008D00080E390E00E94230552FE07C088E751FCA8
:1008E00088E590E0B7010E942305CB1408F48BC083
:1008F000CA94D12C8FEFC81AD80AC80CD91CD601BB
:100900008E916D01B70190E00E9423058C149D0427
:10091000B1F75BCF61917191072E000C880B990B99
:1009200096CFD52CE894D4F82AE0853729F1F52D17
:10093000F97FDF2E8037A1F058F48835A1F08F368B
:10094000D1F0F701868197812F96E2E10C94CD05D5
:100950008837B9F7D4FE02C06894D2F820E10CC001
:100960006894D4F8F7CF54FE03C02F2F2660D22E00
:1009700020E132E002C028E030E0F801D7FE15C0E7
:1009800041915191619171914C875D876E877F870D
:100990008F01A4016C857D858E859F850E945305FE
:1009A000C82EC818E894D7F868CF81919191AC010E
:1009B00070E060E0E9CF52FC02C0A3947ACFA39428
:1009C000A39477CF852D867809F473CFF6CFB7013E
:1009D00080E290E00E942305A394A414C0F3312C7C
:1009E00074CF342C3A18A41408F46FCFF8CF852DA7
:1009F000867809F47ACF8BE251FE80E257FC8DE2D3
:100A0000B70190E070CFB70180E390E00E9423052A
:100A1000BA946BCF8FEF9FEF97CFFC010590615099
:100A200070400110D8F7809590958E0F9F1F089504
:100A3000FC016150704001900110D8F780959095AD
:100A40008E0F9F1F08950F931F93CF93DF93182F3F
:100A5000092FEB018B8181FD09C01FEF0FEF812F63
:100A6000902FDF91CF911F910F91089582FF14C0B5
:100A70002E813F818C819D81281739073CF4E881C4
:100A8000F981CF0101969983888310838E819F819C
:100A900001969F838E83E3CFE885F985812F0995A1
:100AA000892BA1F3DACFFA01AA27283051F120319E
:100AB00081F1E8946F936E7F6E5F7F4F8F4F9F4FF2
:100AC000AF4FB1E03ED0B4E03CD0670F781F891F34
:100AD0009A1FA11D680F791F8A1F911DA11D6A0F02
:100AE000711D811D911DA11D20D009F468943F91B5
:100AF0002AE0269F11243019305D3193DEF6CF01B4
:100B00000895462F4770405D4193B3E00FD0C9F779
:100B1000F6CF462F4F70405D4A3318F0495D31FDE6
:100B20004052419302D0A9F7EACFB4E0A695979539
:100B3000879577956795BA95C9F70097610571050F
:100B400008959B01AC010A2E069457954795379559
:100B50002795BA95C9F7620F731F841F951FA01DB3
:100B600008952F923F924F925F926F927F928F9251
:100B70009F92AF92BF92CF92DF92EF92FF920F932C
:100B80001F93CF93DF93CDB7DEB7CA1BDB0B0FB636
:100B9000F894DEBF0FBECDBF09942A8839884888F3
:100BA0005F846E847D848C849B84AA84B984C88489
:100BB000DF80EE80FD800C811B81AA81B981CE0F80
:100BC000D11D0FB6F894DEBF0FBECDBFED01089565
:100BD000F894FFCF9902A302B102BC02C202C8027C
:020BE000CE0243
:100BE2003C285E5F5E293E0A000053455455502062
:100BF20046494E4953484544210A00464552544904
:100C02004721004D4F544F52205245414459210A29
:100C1200004C696E6573656E736F722072656164F4
:100C220079210A005349474E414C204C45465420F5
:100C32002575207C205349474E414C204D49442084
:100C42002575207C205349474E414C205249474844
:080C5200543A2025750A000048
:04000003000001E018
:00000001FF
