:100000000C9434000C9451000C9451000C94510049
:100010000C9451000C9451000C9451000C9451001C
:100020000C9451000C9451000C9451000C949A00C3
:100030000C9451000C9451000C9451000C945100FC
:100040000C9451000C9451000C9451000C945100EC
:100050000C9451000C9451000C9451000C945100DC
:100060000C9451000C94510011241FBECFEFD8E026
:10007000DEBFCDBF11E0A0E0B1E0E4E3FEE002C0EE
:1000800005900D92AE37B107D9F721E0AEE7B1E0A8
:1000900001C01D92A838B207E1F70E9408040C9431
:1000A00008070C94000067E670E080E090E00E9492
:1000B0004B030E94EC010E948B000E9461038EE0C2
:1000C00091E00C94D702F89415BC85B5836085BD8A
:1000D00014BC84B5836084BD78940895F89410921C
:1000E0008000E1E8F0E01082808188608083808178
:1000F00085608083109285001092840089E09DE3E2
:100100009093890080938800EFE6F0E08081826020
:100110008083789408951AB814B880E68AB9579AFB
:100120000E9463000E946E008BE084B98FE191E031
:100130000C94D7028F938FB78F939F9380918401F4
:1001400090918501019690938501809384019F9100
:100150008F918FBF8F911895109281000895E1E8DB
:10016000F0E080818560808308958630A1F484B5B5
:10017000611104C08F7384BD5E9808956F3F21F4B0
:100180008F7384BD5E9A0895806884BD84B58F7B2B
:1001900084BD67BD0895853099F484B5611104C0AC
:1001A0008F7C84BD5D9808956F3F21F48F7C84BD62
:1001B0005D9A0895806284BD84B58F7E84BD68BDDC
:1001C000089564E685E00E94B50064E686E00E943A
:1001D000B500299828985F9A2B9A08956EE685E0D5
:1001E0000E94B5006EE686E00E94B5002998289826
:1001F0005F9A2B9A089564E685E00E94B50064E654
:1002000086E00E94B5002B985F98289A299A089555
:100210006EEB85E00E94B50064E686E00E94B500C2
:10022000289829985F9A2B9A089564E685E00E94A1
:10023000B5006EEB86E00E94B50028982B985F9A77
:10024000299A089564E685E00E94B5006EEB86E089
:100250000E94B500299828985F9A2B9A08956EEB12
:1002600085E00E94B50069E686E00E94B500299805
:100270005F98289A2B9A089560E085E00E94B50067
:1002800060E086E00E94B50028985F982B98299836
:1002900008950E945B02EC01809184019091850198
:1002A0000F97A0F40E943C01219739F480918401BA
:1002B000909185010E941003ECCF1092850010925E
:1002C00084001092850110928401E3CF1092810086
:1002D0008DE291E00E94D702C830D105D0F6FE0130
:1002E000E65FF84F0C9431040E94E1008091820196
:1002F00090918301843191052CF4019690938301B0
:1003000080938201809180019091810120918201EE
:10031000309183012431310571F4109283011092E0
:100320008201019690938101809380010E94E302F3
:100330000E94EE00AECF039709F0ABCF0E943C01C4
:1003400082E391E00E94D7020E946E001092850124
:10035000109284018091840190918501CC9780F462
:1003600080918401909185010E9410030E945B029C
:10037000019781F310928101109280010E94530035
:100380008091840190918501CC9709F082CF1092E1
:10039000810110928001109281008DE291E00E9413
:1003A000D7020E94E10075CF0E94220172CF0E9405
:1003B0002F012FEF81EE94E0215080409040E1F733
:1003C00000C0000066CF0E94080163CF0E941501A3
:1003D00060CF0E942F015DCF87B1887F87B980E40D
:1003E00080937C0087E080937A0080917A00806817
:1003F00080937A0080917A00806480937A00809163
:100400007A0086FDFCCF809178009091790082E49B
:1004100091E00C94D70290917C00907E8F71982B84
:1004200090937C0080917A00806480937A00809120
:100430007A0086FDFCCF8091780090917900089534
:100440001F93CF93DF9300D000D000D0CDB7DEB79D
:10045000182F6E831D8219821A821B821C824D8185
:100460005E81451315C0242F30E050E040E06981E3
:100470007A818B819C810E940F04C90126960FB658
:10048000F894DEBF0FBECDBFDF91CF911F910895CD
:10049000812F0E940B0229813A814B815C81280FB8
:1004A000391F411D511D29833A834B835C833D8154
:1004B0003F5F3D83D4CF0F931F93CF93DF9364E1CE
:1004C00082E00E9420028C0164E181E00E9420020F
:1004D000EC0164E180E00E9420029C010C3381E089
:1004E000180778F0C73DD14028F129353240D8F0BF
:1004F0000E94730381E090E0DF91CF911F910F91F3
:1005000008950B331140A9F1C63D81E0D80718F5D5
:10051000283582E03807D0F590E080E00E9484031F
:1005200090E080E0E9CF83E090E00E94840383E0E4
:1005300090E0E2CF2935324038F087E090E00E9429
:10054000840387E090E0D8CF82E090E00E948403AB
:1005500082E090E0D1CFC63DD14011F3283582E052
:10056000380750F484E090E00E94840384E090E037
:10057000C3CFC73DD140A0F22935324088F285E093
:1005800090E00E94840385E090E0B6CF28353240A9
:1005900039F286E090E00E94840386E090E0ACCFE0
:1005A0009091C00095FFFCCF8093C6000895CF9333
:1005B000DF93EC018991811103C0DF91CF91089500
:1005C0000E94D002F7CF0F931F93CF93DF93CDB745
:1005D000DEB761970FB6F894DEBF0FBECDBF9F9315
:1005E0008F9385E591E09F938F938E010F5F1F4F4F
:1005F0001F930F930E943704C8010E94D7020F90E7
:100600000F900F900F900F900F9061960FB6F89487
:10061000DEBF0FBECDBFDF91CF911F910F91089527
:100620000F931F93CF93DF93CDB7DEB761970FB6CC
:10063000F894DEBF0FBECDBF9C0180910001909168
:10064000010182179307E1F030930101209300012B
:100650002F5F3F4F3F932F938FE591E09F938F93B1
:100660008E010F5F1F4F1F930F930E943704C80125
:100670000E94D7020F900F900F900F900F900F9045
:1006800061960FB6F894DEBF0FBECDBFDF91CF915C
:100690001F910F910895362F462F572FBC01BB276E
:1006A000A72F962F852F8093C5003093C40088E133
:1006B0008093C1008EE08093C20084E091E00C94AE
:1006C000D702229A549A8EE691E00C94D70290E0D9
:1006D000981301C008955C985C9A9F5FF9CF2A989F
:1006E00083E00C94670385B194E0892785B983E0A2
:1006F0000E9467032FEF83EC99E0215080409040E7
:10070000E1F700C000000895CF93DF93FC018091D2
:100710000201909103018E179F0701F1E830F10566
:10072000E8F4EE5EF84F0C94310481E090E0909391
:100730000301809302012A9A83E0DF91CF910C9408
:10074000670382E090E090930301809302010E948E
:100750006F032A9A81E00E9467032A98DF91CF9164
:10076000089583E090E090930301809302010E943A
:100770006F032A9A82E00E9467032A9881E0DDCF06
:1007800084E090E090930301809302010E946F0344
:100790002A9A81E0F0CF85E090E090930301809366
:1007A00002010E946F0384E085B982E00E94670322
:1007B0008BEF85B9D3CF86E090E0909303018093CF
:1007C00002012A9A81E00E9467032A9882E0B5CF4D
:1007D00087E090E090930301809302010E946F03F1
:1007E000D4E0D5B981E00E946703CBEFC5B981E0C1
:1007F0000E946703D5B981E00E946703C5B9AECFF7
:100800001092030110920201DF91CF910C946F03BB
:100810000E9453000E94490190E080E00895A1E207
:100820001A2EAA1BBB1BFD010DC0AA1FBB1FEE1F6A
:10083000FF1FA217B307E407F50720F0A21BB30BB5
:10084000E40BF50B661F771F881F991F1A9469F731
:1008500060957095809590959B01AC01BD01CF018D
:100860000895EE0FFF1F0590F491E02D0994AEE07E
:10087000B0E0EDE3F4E00C94DF060D891E8986E01C
:100880008C831A8309838FEF9FE79E838D83AE014C
:10089000475E5F4F6F89788DCE0101960E945A04A2
:1008A0002F813885020F131FF80110822E96E4E085
:1008B0000C94FB06AFE0B0E0E0E6F4E00C94D10667
:1008C0007C013B018A01DC0117961C921E9216974F
:1008D00013968C9181FFBEC19AE0292EFE013196BC
:1008E0004F01D70113969C91F30193FD859193FFDE
:1008F00081913F01882309F444C1853239F493FD85
:10090000859193FF81913F01853229F4B70190E0F1
:100910000E944306E6CFB12C412C512CBFE1B51506
:1009200038F08B3209F188F4803201F1833221F101
:1009300057FC3AC020ED280F2A3040F556FE1FC064
:10094000B29C200D1124B22E06C08D3291F080335E
:1009500079F7689450F8F30193FD859193FF8191A5
:100960003F018111DBCF20C0689451F8689452F8A0
:10097000F2CF689453F8EFCF689454F8ECCF429CD0
:10098000200D1124422E689455F8E5CF8E3229F4BB
:1009900056FCF7C0689456F8DECF8C3619F468948C
:1009A00057F8D9CF8836B9F2982F9F7D9554933058
:1009B000C0F08336A1F18337C1F1833509F05BC004
:1009C000D801CD90DD908D016B2D70E056FC02C0FA
:1009D0006FEF7FEFC6010E942D065C01689457F807
:1009E0000AC00C5F1F4FEFE3E983AA24A394B12C44
:1009F0006401E89457F853FC04C04A141B0409F03E
:100A000018F5342CA114B10431F5332009F469CF61
:100A1000B70180E290E00E9443063A94F6CFD801F5
:100A20008C9189830E5F1F4FE0CFF801C190D19068
:100A30008F016B2D70E056FC02C06FEF7FEFC60197
:100A40000E9438065C01D5CFB70180E290E00E9499
:100A500043064A94D2CFF60157FC859157FE819107
:100A60006F01B70190E00E94430631103A94B1E063
:100A7000AB1AB108C7CF843619F0893609F071C0B6
:100A8000F80157FE67C061917191819191918F0139
:100A9000E52DEF76DE2E97FF09C090958095709535
:100AA00061957F4F8F4F9F4F6894D7F82AE030E0D1
:100AB000A4010E947306C82EC818AC2C5D2CD6FE6B
:100AC0000CC0E89450F8CB1440F4D4FE05C0D2FC1E
:100AD00003C05D2D5E7E552EAB2C54FE93C0FE01EF
:100AE000EC0DF11D8081803309F085C0652D697E94
:100AF000562E752D7870372E53FC93C050FE8DC046
:100B0000BC2CA41410F4B40CBA1854FE90C0B70155
:100B100080E390E00E94430652FE07C088E751FC44
:100B200088E590E0B7010E944306CB1408F48BC01F
:100B3000CA94D12C8FEFC81AD80AC80CD91CD60178
:100B40008E916D01B70190E00E9443068C149D04C4
:100B5000B1F75BCF61917191072E000C880B990B57
:100B600096CFD52CE894D4F82AE0853729F1F52DD5
:100B7000F97FDF2E8037A1F058F48835A1F08F3649
:100B8000D1F0F701868197812F96E2E10C94ED0672
:100B90008837B9F7D4FE02C06894D2F820E10CC0BF
:100BA0006894D4F8F7CF54FE03C02F2F2660D22EBE
:100BB00020E132E002C028E030E0F801D7FE15C0A5
:100BC00041915191619171914C875D876E877F87CB
:100BD0008F01A4016C857D858E859F850E9473069B
:100BE000C82EC818E894D7F868CF81919191AC01CC
:100BF00070E060E0E9CF52FC02C0A3947ACFA394E6
:100C0000A39477CF852D867809F473CFF6CFB701FB
:100C100080E290E00E944306A394A414C0F3312C18
:100C200074CF342C3A18A41408F46FCFF8CF852D64
:100C3000867809F47ACF8BE251FE80E257FC8DE290
:100C4000B70190E070CFB70180E390E00E944306C7
:100C5000BA946BCF8FEF9FEF97CFFC010590615057
:100C600070400110D8F7809590958E0F9F1F0895C2
:100C7000FC016150704001900110D8F7809590956B
:100C80008E0F9F1F08950F931F93CF93DF93182FFD
:100C9000092FEB018B8181FD09C01FEF0FEF812F21
:100CA000902FDF91CF911F910F91089582FF14C073
:100CB0002E813F818C819D81281739073CF4E88182
:100CC000F981CF0101969983888310838E819F815A
:100CD00001969F838E83E3CFE885F985812F09955F
:100CE000892BA1F3DACFFA01AA27283051F120315C
:100CF00081F1E8946F936E7F6E5F7F4F8F4F9F4FB0
:100D0000AF4FB1E03ED0B4E03CD0670F781F891FF1
:100D10009A1FA11D680F791F8A1F911DA11D6A0FBF
:100D2000711D811D911DA11D20D009F468943F9172
:100D30002AE0269F11243019305D3193DEF6CF0171
:100D40000895462F4770405D4193B3E00FD0C9F737
:100D5000F6CF462F4F70405D4A3318F0495D31FDA4
:100D60004052419302D0A9F7EACFB4E0A6959795F7
:100D7000879577956795BA95C9F7009761057105CD
:100D800008959B01AC010A2E069457954795379517
:100D90002795BA95C9F7620F731F841F951FA01D71
:100DA00008952F923F924F925F926F927F928F920F
:100DB0009F92AF92BF92CF92DF92EF92FF920F93EA
:100DC0001F93CF93DF93CDB7DEB7CA1BDB0B0FB6F4
:100DD000F894DEBF0FBECDBF09942A8839884888B1
:100DE0005F846E847D848C849B84AA84B984C88447
:100DF000DF80EE80FD800C811B81AA81B981CE0F3E
:100E0000D11D0FB6F894DEBF0FBECDBFED01089522
:100E1000F894FFCFE9017401D401D701D101E601B3
:100E2000E301E60100049503DB03B103C003CB0338
:040E3000A103E8032F
:100E3400010001003C285E5F5E293E0A0000534524
:100E44005455502046494E4953484544210A004DC3
:100E54004F544F52205245414459210A00474F21D3
:100E64000A005941592C2046494E495348454421CA
:100E74000A004C494E4553454E534F52205245416A
:100E84004459210A00524F554E442025750A004307
:100E94004F554E54444F574E3A2025750A004C493D
:0E0EA40047485453205245414459210A00004A
:00000001FF
